:020000040800F2
:10000000880900247D030008833C0008DB380008D1
:10001000813C000843080008E1520008000000008D
:10002000000000000000000000000000B93F0008D0
:10003000B509000800000000553D00081D400008FB
:100040009703000897030008970300089703000828
:100050009703000897030008970300089703000818
:100060009703000897030008970300089703000808
:1000700097030008970300089703000897030008F8
:1000800097030008970300089703000897030008E8
:1000900097030008970300089703000897030008D8
:1000A00097030008970300089703000897030008C8
:1000B00097030008970300089703000897030008B8
:1000C00097030008970300089703000897030008A8
:1000D0009703000897030008BD520008C9520008A2
:1000E000970300089703000800000000970300082A
:1000F0009703000897030008970300089703000878
:100100009703000897030008970300089703000867
:100110009703000897030008970300089703000857
:100120009703000897030008970300089703000847
:100130009703000897030008970300089703000837
:1001400000000000000000000000000000000000AF
:10015000970300089703000897030008D55200088A
:100160009703000897030008970300089703000807
:100170009703000897030008970300080000000099
:1001800097030008970300089703000897030008E7
:1001900097030008970300089703000897030008D7
:1001A0009703000897030008970300080000000069
:1001B00097030008970300089703000897030008B7
:1001C00097030008970300080000000000000000EB
:1001D000000000000000000097030008000000007D
:1001E000000000000000000000000000000000000F
:1001F00000000000000000009703000897030008BB
:100200009703000897030008000000009703000808
:100210009703000897030008970300089703000856
:10022000970300080000000097030008000000008A
:1002300097030008970300080000000097030008D8
:100240009703000897030008970300089703000826
:100250009703000897030008970300089703000816
:100260009703000897030008970300089703000806
:100270009703000897030008970300080000000098
:1002800097030008970300089703000897030008E6
:10029000000000009703000897030008000000001A
:1002A0000000000097030008970300089703000868
:1002B00097030008970300089703000897030008B6
:1002C00097030008970300089703000800F002F85E
:1002D00000F044F80AA090E8000C82448344AAF19C
:1002E0000107DA4501D100F039F8AFF2090EBAE89A
:1002F0000F0013F0010F18BFFB1A43F0010318475A
:10030000C0520000E0520000103A24BF78C878C103
:10031000FAD8520724BF30C830C144BF04680C600B
:10032000704700000023002400250026103A28BF53
:1003300078C1FBD8520728BF30C148BF0B60704757
:10034000642900F02B81632900F03582002070477A
:100350001FB505F013F91FBD10B510BD00F037FA39
:100360001146FFF7F5FF04F0CDFF00F055FA03B496
:10037000FFF7F2FF03BC00F05DFA00000948804778
:1003800009480047FEE7FEE7FEE7FEE7FEE7FEE777
:10039000FEE7FEE7FEE7FEE704480549054A064B8F
:1003A00070470000B9400008CD020008880300240F
:1003B00088090024880500248805002453EA020CDB
:1003C00000F069802DE9F04B4FF00006002B1FBFB5
:1003D000B3FA83F503FA05F424FA05F65E4012BF7A
:1003E0001643B2FA82F502FA05F4C5F120051EBFE4
:1003F00022FA05FC44EA0C04203556EA044C4FEA84
:10040000144418BF641C4FF000084FF000099042DC
:1004100071EB030C39D3002919BFB1FA81F701FA46
:1004200007F6B0FA80F700FA07F6C7F120071EBFFB
:1004300020FA07FC46EA0C062037B6FBF4FCA7EBD3
:100440000507103F07F01F0BCBF120060CFA0BFB42
:100450002CFA06F644BFB3460026202FA4BF5E4602
:100460004FF0000B5BEA060C08BF4FF0010B19EBD5
:100470000B09ABFB027C48EB0608C01B06FB02CC59
:100480000BFB03CC71EB0C01C1E70B460246414666
:100490004846BDE8F08B13B54FF000004FF0000167
:1004A000AFF30080BDE81C40704700000FB41CB5DE
:1004B0000C0007AA009001D02044401E074B7B444B
:1004C00069460190069800F04CF9002C03D069466B
:1004D000002000F059F91CBC5DF814FBD1020000AB
:1004E0002DE9F0410E460446002020622046E168D6
:1004F000884730B3252805D0D4E901219047206AE8
:10050000401CF2E7E168204600278847050018D024
:10051000A5F14100192802D820354FF40067324672
:10052000294620462760FFF70BFF40B1012804D081
:10053000F61D26F007060836D8E7361DD6E728460A
:10054000DAE7206ABDE8F08170B50C460546012A5D
:1005500005D02878800600D5EA69002302E001234F
:1005600005E05B1C934202D2E05C0028F9D1A86947
:10057000E618C01AA861286A184428622846AFF312
:10058000008004E0D5E9012114F8010B9047B44242
:10059000F8D32846AFF3008070BD00002DE9F0418C
:1005A0000646002410687529314616A510D0AFF311
:1005B0000080002802DA404213A507E031688A076C
:1005C00001D512A502E0490704D511A5012401E0D7
:1005D000AFF3008000210A2206F1240709E0B0FBF6
:1005E000F2FCB0FBF2F302FB1C00303078541846EA
:1005F000491C0028F3D123462A463046BDE8F04185
:1006000000F051B8000000002D0000002B00000099
:100610002000000010B5431C02E010F8011B71B16E
:100620008107FAD14FF0013202C88C1A8C4314EAC8
:10063000C211F9D0C01A0A0603D0C01E10BDC01ADC
:1006400010BD0A0401D0801E10BD0902FCD0401E5E
:1006500010BD4FF0000200B513469446964620396F
:1006600022BFA0E80C50A0E80C50B1F12001BFF46B
:10067000F7AF090728BFA0E80C5048BF0CC05DF8D1
:1006800004EB890028BF40F8042B08BF704748BF1F
:1006900020F8022B11F0804F18BF00F8012B704793
:1006A0007047704770472DE9F0470D4699469246CE
:1006B000044600F124080168880604D5E06921F0A9
:1006C0001001216000E00120A84201DD471B00E08D
:1006D0000027A1697A1902EB0900081AA0612078A5
:1006E000C00602D42046AFF30080002608E0D4E91B
:1006F00001211AF806009047206A401C761C2062EF
:100700004E45F4DB2078C0060AD52046AFF30080C2
:1007100006E0D4E9012130209047206A401C206285
:10072000381EA7F10107F4DC07E0D4E9012118F82D
:1007300005009047206A401C2062281EA5F1010593
:10074000F3DC2046AFF300802078000602D50220BB
:10075000BDE8F0870120FBE701694A1C02610878C7
:10076000704700B58FB0CDE90131002105910549F1
:100770007944CDE9031011466846FFF7B1FE0FB08A
:1007800000BD0000E5FFFFFF0A6802F8010B0A60E8
:100790007047D1E900239A4202D2531C0B601070BB
:1007A000704710B5436913B1AFF3008001E0FFF764
:1007B000CBFE012010BD127800F124010A70002246
:1007C0004A700122EDE711684FF0FF32E9E7754604
:1007D00000F02CF8AE4605006946534620F00700AD
:1007E000854618B020B5FFF7D7FDBDE820404FF093
:1007F00000064FF000074FF000084FF0000B21F00B
:100800000701AC46ACE8C009ACE8C009ACE8C009D7
:10081000ACE8C0098D46704710B50446AFF30080C0
:100820002046BDE81040FFF7A2BD00000048704719
:100830002803002401491820ABBEFEE72600020071
:100840007047FEE700B585B0002120200222039208
:10085000CDE900010248694600F0CCFB05B000BDBF
:100860000000025800B585B0012120200222039229
:10087000CDE900010248694600F0BCFB05B000BDAF
:100880000000025870B50025FFF7ECFF284E00224B
:100890002021304600F0C1FC122000F099FB01221B
:1008A0003046202100F0B9FC142000F085F8FFF755
:1008B000C9FF142000F080F82021304600F0A8FC89
:1008C0001C4C28B126E0012000F076F86D1CEDB23A
:1008D0003046202100F09CFC08B9642DF3D300259C
:1008E00004E0012000F068F86D1CEDB230462021D4
:1008F00000F08EFC012801D1642DF2D35FF00005D9
:1009000000F01AF8691C6055CDB2052DF8D33220DD
:1009100000F052F820786178A278E57808442379CD
:1009200051190844834201D1012070BD002070BDDF
:1009300000000258040000242DE9F0410024DFF8F3
:1009400070802546264604E0012000F035F86D1C35
:10095000EDB247462021404600F05AFC08B9642D0C
:10096000F2D30025282000F027F82021B846384689
:1009700000F04EFC012801D0002706E0012704E02A
:10098000012000F019F86D1CEDB24046202100F066
:100990003FFC012801D1642DF2D36006761C0025AE
:1009A000F6B2082E47EA1064D3D32046BDE8F081A2
:1009B000000002587047000070B50A4D4FF6FA76F5
:1009C000301A84B229684C62284602F0F5F828688B
:1009D00001E0416A8CB2B442FBD3BDE870400148EB
:1009E00002F034B94000002472B6FEE72DE9F84F5A
:1009F000044600F017FC00903CB194F83500022842
:100A000006D0802161650020E4E00120BDE8F88F78
:100A1000C74DC74EC649183520683036DFF81483F5
:100A2000DFF814938842DFF814A3DFF814B32ED054
:100A3000A8422CD0B0422AD0404528D0484526D0E4
:100A4000504524D0584522D0BD4A183290421ED07D
:100A5000BC4A90421BD0BB4A1832904217D0B94AC8
:100A60003032904213D0B74A483290420FD0B54A44
:100A7000603290420BD0B34A7832904207D0B14AEC
:100A80009032904203D0AF4AA832904209D1026816
:100A900022F01E0202602068426922F08002426158
:100AA00003E0026822F00E02026027688F42384697
:100AB0004DD0A8424BD0B04249D0404547D04845E0
:100AC00045D0504543D0584541D09D4A18329042B8
:100AD0003DD09C4A90423AD09A4A1832904236D041
:100AE000984A3032904232D0964A483290422ED0C4
:100AF000944A603290422AD0924A7832904226D06C
:100B0000904A9032904222D08E4AA83290421ED013
:100B10008D4A90421BD08C4A1432904217D08A4A98
:100B20002832904213D0884A3C3290420FD0864AF5
:100B3000503290420BD0844A6432904207D0824AAD
:100B40007832904203D0804A8C32974204D1206E92
:100B5000026822F48072026075492068884228D0B9
:100B6000A84226D0B04224D0404522D0484520D0CB
:100B700050451ED058451CD071491831884218D0B4
:100B80007049884215D06F491831884211D06D499B
:100B9000303188420DD06B494831884209D06949CB
:100BA0006031884205D067497831884201D0654973
:100BB0009031016821F0010101600EE000F032FB8C
:100BC0000099401A052808D92022626503210020D7
:100BD00084F8351084F8340017E73868C007EDD181
:100BE000534A0121206890422ED0A8422CD0B04216
:100BF0002AD0404528D0484526D0504524D05845D5
:100C000022D04F4B183398421ED04E4B98421BD0E7
:100C10004C4B1833984217D04A4B3033984213D07C
:100C2000484B483398420FD0464B603398420BD024
:100C3000444B7833984207D0424B9033984203D0CC
:100C4000404BA833984208D194F85C703F23A06DC4
:100C500007F01F07BB40836007E094F85C30A06D8D
:100C600003F01F0301FA03F34360206890424DD064
:100C7000A8424BD0B04249D0404547D0484545D026
:100C8000504543D0584541D02D4A183290423DD06E
:100C90002C4A90423AD02B4A1832904236D0294AF8
:100CA0003032904232D0274A483290422ED0254AE4
:100CB000603290422AD0234A7832904226D0214A8C
:100CC0009032904222D01F4AA83290421ED01E4A33
:100CD00090421BD01C4A1432904217D01A4A283234
:100CE000904213D0184A3C3290420FD0164A5032EC
:100CF00090420BD0144A6432904207D0124A7832A4
:100D0000904203D0104A8C3290420BD1D4E91902A0
:100D10004260E06E30B1026822F480720260D4E971
:100D20001C024260002084F8351084F834006DE61F
:100D3000100002405800024070000240880002404B
:100D4000A000024010040240085402582DE9F05F50
:100D500028B190F83510022904D080214165012086
:100D6000BDE8F09F904C904B0168183C18338E4AB8
:100D7000DFF83C92A1428D4CDFF838E28E4FDFF86D
:100D80003CB2DFF83CA28F4D8F4E31D091422FD034
:100D900099422DD0A1422BD0494529D0714527D069
:100DA000B94225D0DFF810C20CF1180C61451FD0F4
:100DB000DFF808C2ACF1600C614519D0DFF8FCC166
:100DC000ACF1480C614513D0DFF8F0C1ACF1300C48
:100DD00061450DD0DFF8E4C1ACF1180C614507D0D6
:100DE000594505D0514503D0A94201D0B1422CD17B
:100DF000DFF8B4C14FF0040880F83580ACF1180C6E
:100E000061451DD091421BD0994219D0A14217D003
:100E1000494515D0714513D0B94211D066481830F4
:100E200081420DD065486038814209D06348483816
:100E3000814205D061483038814201D05F4818387E
:100E4000086820F001000860ABE0D1F800C02CF089
:100E50000E08DFF854C1C1F80080ACF1180C01682D
:100E6000614527D0914225D0994223D0A14221D07B
:100E700049451FD071451DD0B9421BD0DFF838C19C
:100E80000CF1180C614515D0DFF830C1ACF1600CE5
:100E900061450FD0DFF824C1ACF1480C614509D0A1
:100EA000DFF818C1ACF1300C614503D0DFF80CC19C
:100EB000ACF1180CD1F800C02CF0010CC1F800C046
:100EC000DFF8E4804FF0010C0168A8F118084145F3
:100ED00046D0914244D0994242D0A14240D04945A7
:100EE0003ED071453CD0B9423AD0334A1832914293
:100EF00036D0324A603A914232D0304A483A914232
:100F00002ED02E4A303A91422AD02C4A183A914299
:100F100026D0594524D0514522D0A94220D0B142F3
:100F20001ED02A4A91421BD0284A1432914217D02F
:100F3000264A2832914213D0244A3C3291420FD0A3
:100F4000224A503291420BD0204A6432914207D05B
:100F50001E4A7832914203D01C4A8C32914218D1F9
:100F6000016E0A6822F480720A6090F85C20816D3C
:100F700002F01F020CFA02F24A60D0E919124A602C
:100F8000C16E31B10A6822F480720A60D0E91C1285
:100F90004A600022016D80F835C080F8342001B12C
:100FA00088470020DCE6000028000240580002408C
:100FB0007000024088000240A0000240700402401D
:100FC00088040240A0040240B804024008540258B9
:100FD00070B5044600F026F90546601C02D00448AE
:100FE0000078044400F01EF9401BA042FAD370BD03
:100FF000200000242DE9F84F03247A4D00234FF000
:1010000001094FF0B04B4FF00F0AE4E009FA03F684
:10101000324078D00F7907F00307012F01D0022F5B
:101020001AD187684FEA430ED1F80CC004FA0EF8C3
:1010300027EA08070CFA0EFC4CEA070CC0F808C0B7
:10104000476891F804C0B743CCF3001C0CFA03FCCA
:101050004CEA070CC0F804C00E79F643B6070BD073
:10106000C6684FEA43088F6804FA08FC26EA0C06B3
:1010700007FA08F73743C7600E7906F00306022E19
:1010800012D1DE080F694FEA437C00EB8606B646B4
:10109000366A4FEADC6C0AFA0CF807FA0CF726EA13
:1010A00008063743CEF820700F7906684FEA4308E8
:1010B00007F0030704FA08FC07FA08F726EA0C060B
:1010C000374307604E6816F4403F1CD0464E3768E1
:1010D00047F00207376036689F0706F00206009661
:1010E00023F0030606F1B046B6463F0FD6F8086473
:1010F000DFF8F8800AFA07FC404526EA0C0603D11F
:101100004FF0000C3AE065E0DFF8E4C0604502D142
:101110004FF0010C32E0DFF8DCC0604502D14FF047
:10112000020C2BE0DFF8D0C0604502D14FF0030C79
:1011300024E0DFF8C8C0604502D14FF0040C1DE088
:10114000DFF8BCC0604502D14FF0050C16E0DFF8B7
:10115000B4C0604502D14FF0060C0FE0DFF8A8C024
:10116000604502D14FF0070C08E0DFF8A0C06045F1
:1011700002D14FF0090C01E04FF00A0C0CFA07FC09
:101180004CEA060CCEF808C44F68DBF80060FF029A
:1011900026EA020600D516435F46CBF80060D1F878
:1011A00004C0DBF804605FEA8C2C26EA020600D556
:1011B00016437E606E684F6826EA0206BF0300D5BC
:1011C00016436E602E684F6826EA0206FF0300D5BC
:1011D00016432E605B1C0A6832FA03F67FF416AFE2
:1011E000BDE8F88F80000058F4440258000002580F
:1011F0000004025800080258000C0258001002585F
:101200000014025800180258001C0258002402580A
:101210000069084000D0012070470AB18161704721
:101220000904FBE7014880687047000020000024A3
:1012300002488168027811448160704720000024D0
:10124000032010B500F0D4F801F076F80F4A1049E9
:1012500014681368C4F3032203F00F038A5CC95CAB
:1012600002F01F0201F01F01D0400A4A20FA01F1EA
:101270001160094908600F2000F010F808B1012042
:1012800010BD00F079F8002010BD0000184402588D
:10129000AE550008300000242C00002470B50D4D20
:1012A00004462878A0B14FF47A71B1FBF0F00A49F6
:1012B0000968B1FBF0F001F06EFB48B9102C07D2C1
:1012C00000222146501E00F073F800206C6070BDB3
:1012D000012070BD200000242C000024154BF0B527
:1012E000083B427813491A600B680A1F23F0010378
:1012F0000B6043681360057BC67A827A437B2D07B7
:10130000847B45EA0665C77B90F809C0067A90F8A9
:1013100000E045EAC24040EA834040EA444040EAF7
:10132000074040EA0C2040EA460040EA0E00086010
:10133000F0BD0000A0ED00E0BFF35F8F0448002186
:101340000368034A23F480330360703211607047EE
:1013500024ED00E0074A40F00100064970321060B9
:10136000086840F480300860BFF34F8FBFF36F8F81
:101370007047000024ED00E0054808B5016841F021
:1013800002010160006800F00200009008BD00004A
:10139000F4440258002809DB410900F01F028900CB
:1013A000012001F1E0219040C1F8000170470000E8
:1013B0000E4BF0B41B680D46C3F30223C3F10706BE
:1013C000042E00D90426191D072901D2002300E0AC
:1013D000DB1E012404FA06F19C40491E2940641ECC
:1013E000994014402143F0BC03F07BBF0CED00E0BA
:1013F000064900F0070210B54FF6FF040868044BD9
:10140000204040EA02201843086010BD0CED00E0C7
:101410000000FA05134970B50A68D243520705D592
:10142000096801F00701814213D118E00A6822F02F
:10143000070202430A60FFF7F5FE0A4D4FF47A7681
:101440000446083D07E000BFFFF7ECFE001BB0427A
:1014500001D9012070BD2868C0438004F4D4002065
:1014600070BD00000C48025810B500F01FFF054980
:101470000968054AC1F30211515C01F01F01C8401F
:1014800010BD000020440258AE550008494930B54F
:10149000484C0B1D0A68143409681D68246802F062
:1014A0000303C5F30012C1F30531C4F3CC040029D2
:1014B00014FB02F200EE102AF8EE400A75D03F4A03
:1014C0009FED3D1AB7EE000A6BB1DFED3D1A012B1F
:1014D00001D0022B64D002EE101A1168F8EE422AF5
:1014E00081EEA22A21E0334C283C23689B0612D5CA
:1014F000344B246801EE901A1168C4F3C104F8EE6D
:10150000612AE34001EE903AC1F30801F8EE611A56
:1015100081EEA22A0BE001EE901ADFED2B2A00BF2C
:10152000F8EE611A116882EEA12AC1F3080101EEFA
:10153000901A1168F8EE611A40EE811A71EE800A75
:1015400062EE200AC1F3462101EE101AB8EE411AEC
:1015500031EE001AC0EE811ABCEEE11A80ED001ADD
:101560001168C1F3064101EE101AB8EE411A31EECE
:10157000001AC0EE811ABCEEE11A80ED011A116862
:10158000C1F3066101EE101AB8EE411A31EE000AFD
:1015900080EE801ABCEEC10A80ED020A30BD04E084
:1015A00001EE901ADFED092ABAE7002101604160DF
:1015B0008160F3E72844025800000039384402589B
:1015C0000024744A0090D0030024744C20BCBE4B0D
:1015D000494930B5484C0B1D0A681C3409681D6820
:1015E000246802F00303C5F30022C1F30551C4F3DC
:1015F000CC04002914FB02F200EE102AF8EE400A97
:1016000075D03F4A9FED3D1AB7EE000A6BB1DFED92
:101610003D1A012B01D0022B64D002EE101A116882
:10162000F8EE422A81EEA22A21E0334C283C2368BE
:101630009B0612D5344B246801EE901A1168C4F34E
:10164000C104F8EE612AE34001EE903AC1F30801CB
:10165000F8EE611A81EEA22A0BE001EE901ADFED9E
:101660002B2A00BFF8EE611A116882EEA12AC1F39D
:10167000080101EE901A1168F8EE611A40EE811A25
:1016800071EE800A62EE200AC1F3462101EE101AC3
:10169000B8EE411A31EE001AC0EE811ABCEEE11A22
:1016A00080ED001A1168C1F3064101EE101AB8EE80
:1016B000411A31EE001AC0EE811ABCEEE11A80ED3B
:1016C000011A1168C1F3066101EE101AB8EE411A51
:1016D00031EE000A80EE801ABCEEC10A80ED020AEB
:1016E00030BD04E001EE901ADFED092ABAE70021CF
:1016F000016041608160F3E728440258000000392E
:10170000404402580024744A0090D0030024744CD2
:1017100020BCBE4B2DE9FE4F0546DFF800A450F873
:10172000081B0024FD4FC943019005F128002646FF
:101730000AF1240A009008011DD4686E50B1B0F57A
:10174000801F0CD0B0F5001F0ED0B0F5401F1ED08A
:1017500001240FE0386840F40030386017E0019849
:10176000022102F009FB03E00098022102F094FB41
:1017700004000CD026462888C043C00523D4A86D99
:1017800005281ED2DFE800F00C11161B1B006A6E44
:10179000DAF8001021F440111143CAF80010EAE70A
:1017A000386840F40030386009E00198002102F008
:1017B000E3FA03E00098002102F06EFB0446C4B196
:1017C00000E0012426462888DFF85083C04308F152
:1017D0002C0840052FD4D5F8A400B0F5C00F28D0B0
:1017E00010DCB8B1B0F5001F19D0B0F5800F0FD1E3
:1017F0001AE0AA6DDAF8001021F007011143CAF8C7
:101800000010E0E7B0F5000F13D0B0F5200F10D0B6
:1018100001240FE0386840F40030386009E0019896
:10182000002102F0A9FA03E00098002102F034FB45
:10183000044694B126462888C043000530D4D5F824
:10184000A800B0F1407F29D011DCC0B1B0F1807F99
:101850001AD0B0F1007F10D11BE0D5F8A420D8F841
:10186000001021F460011143C8F80010E3E7B0F163
:10187000806F13D0B0F1A06F10D001240FE0386852
:1018800040F40030386009E00198002102F074FA59
:1018900003E00098002102F0FFFA044694B12646C6
:1018A0002868DFF878B2C0430BF1200B80011FD409
:1018B000E86CD8B110280FD0202812D0302815D0CD
:1018C000012414E0D5F8A820D8F8001021F0E06138
:1018D0001143C8F80010E3E7386840F4003038607E
:1018E00004E00198022102F047FA044674B126464A
:1018F0002888C043C0042BD4E86DB0F5005F20D029
:101900000DDCA0B1B0F5805F0FD115E0EA6CDBF81B
:10191000001021F030011143CBF80010E8E7B0F5DA
:10192000405F13D0B0F5804F10D001240FE038682D
:1019300040F40030386009E00198002102F01CFA00
:1019400003E00098002102F0A7FA04468CB1264675
:101950002888C043800429D4286EB0F5403F23D0A6
:1019600010DC08B3B0F5803F14D0B0F5003F0FD1C4
:1019700015E0EA6DDAF8001021F4E0411143CAF8ED
:101980000010E5E7B0F5802F0ED0B0F5A02F0BD0FA
:1019900001240AE00198012102F0EEF903E0009829
:1019A000012102F079FA044694B126462888C04302
:1019B00040042AD4D5F8AC00B0F1405F23D010DC4D
:1019C00008B3B0F1805F14D0B0F1005F0FD115E023
:1019D0002A6EDAF8001021F4E0211143CAF8001051
:1019E000E4E7B0F1804F0ED0B0F1A04F0BD001244E
:1019F0000AE00198012102F0BFF903E000980121FB
:101A000002F04AFA044674B126462888C04300040E
:101A10001FD4E86ED8B1B0F1805F0ED0B0F1005F96
:101A200010D0012414E0D5F8AC20D8F8001021F033
:101A3000E0411143C8F80010E7E7386840F400308F
:101A4000386004E00198012102F096F9044674B16F
:101A500026462868C043C0011ED4A86CD0B1012816
:101A60000ED0022811D0032814D0012413E0EA6E0E
:101A7000DAF8001021F040511143CAF80010E8E7ED
:101A8000386840F40030386004E00198022102F028
:101A900073F904466CB126462868C043400255D409
:101AA0001F48016841F480710160FFF7BBFB81466C
:101AB0000EE0AA6CDBF8001021F003011143CBF813
:101AC0000010E9E7FFF7AEFBA0EB090064283BD864
:101AD00013480068C005F5D5BCBBDFF84090B5F8E9
:101AE000B01009F14409D9F8000001F4407100F484
:101AF0004070884211D0D9F80010D9F8002021F4A4
:101B0000407142F48032C9F80020D9F8002022F454
:101B10008032C9F80020C9F8001003E02C440258B4
:101B200000480258D5F8B000B0F5807F19D1FFF712
:101B300079FB029011E000BFFFF774FB0299411A94
:101B400041F28830814208D9032426462878DFF8FC
:101B50001494C043C00721D03CE0D9F800008007AE
:101B6000EAD5D5F8B010C1F301200328FE480DD006
:101B7000016821F47C510160B5F8B020D9F800105B
:101B8000C2F30B021143C9F80010DFE7F74A0368FC
:101B900002EA111223F47C511143ECE7A86F1828D4
:101BA00016D005DCA0B1082808D0102804D10AE01E
:101BB00020280DD028280BD001240AE0019801210B
:101BC00002F0DAF803E00098012102F065F904461A
:101BD00064B126462878C04380071ED4686F062863
:101BE00019D2DFE800F0160C11161616AA6FD9F8F4
:101BF000001021F038011143C9F80010EAE70198FC
:101C0000012102F0B9F803E00098012102F044F943
:101C100004467CB100E0012426462878C0434007F2
:101C20001FD4D5F89000062819D2DFE800F0160C72
:101C3000111616166A6FD9F8001021F0070111432A
:101C4000C9F80010E9E70198012102F095F803E0D6
:101C50000098012102F020F90446A4B100E001241B
:101C600026462878C04380062BD4D5F88C00B0F1E6
:101C7000405F24D011DC10B3B0F1805F15D0B0F11B
:101C8000005F10D116E0D5F89020D8F8001021F0B0
:101C900007011143C8F80010E3E7B0F1804F0ED000
:101CA000B0F1A04F0BD001240AE00198002102F00E
:101CB00063F803E00098022102F0EEF8044694B1C4
:101CC00026462878C04340062BD4D5F89800B0F5B6
:101CD000406F24D011DC10B3B0F5806F15D0B0F593
:101CE000006F10D116E0D5F88C20D9F8001021F043
:101CF000E0411143C9F80010E3E7B0F5805F0ED072
:101D0000B0F5A05F0BD001240AE00198002102F099
:101D100033F803E00098022102F0BEF8044694B1C3
:101D200026462878C04300062BD4D5F89C00B0F591
:101D3000C04F24D011DC10B3B0F5005F15D0B0F562
:101D4000804F10D116E0D5F89820D8F8001021F473
:101D5000E0511143C8F80010E3E7B0F5004F0ED092
:101D6000B0F5204F0BD001240AE00198002102F0C9
:101D700003F803E00098022102F08EF8044654B103
:101D800026462878C04300071ED4D5F88000B0F559
:101D9000805F0AD00FE0D5F89C20D8F8001021F41D
:101DA00060411143C8F80010EBE70098022102F0EF
:101DB00073F800B10126D5F88020D9F8001021F47D
:101DC00040511143C9F800102878C043C00613D40D
:101DD000D5F89400B0F5807F05D10098022102F07B
:101DE0005BF800B10126D5F89420D8F8001021F452
:101DF00040711143C8F800102868C043000316D48E
:101E0000D5F8A00038B1B0F5803F09D0B0F5003F5B
:101E10000BD001240AE00198002101F0ADFF03E09E
:101E20000098022102F038F804468CB12646286852
:101E3000C043400322D4D5F88400B0F5801F11D0F0
:101E4000B0F5001F13D0B0F5401F15D0012414E0E9
:101E5000D5F8A020D8F8001021F440311143C8F87B
:101E60000010E4E7386840F40030386004E000987F
:101E7000012102F011F804465CB126462868C043EF
:101E8000C0031CD4286D70B1B0F5803F10D0012480
:101E900014E0D5F88420D9F8001021F44011114342
:101EA000C9F80010EAE7386840F40030386004E010
:101EB0000198022101F060FF0446DCB12646286843
:101EC000C043800005D40098022101F0E5FF00B175
:101ED00001262868C04380031BD4E86FB8B1B0F571
:101EE000807F10D0B0F5007F11D0B0F5407F0ED0CC
:101EF00001240DE02A6DDBF8001021F4803111433C
:101F0000CBF80010DBE7386840F4003038607CB371
:101F100026462868C043C00207D42A6FDAF80010AA
:101F200021F000411143CAF800102868C043800224
:101F300007D4AA6EDAF8001021F080711143CAF8B4
:101F400000102868C043400009D40748016821F404
:101F5000004101600168D5F8B42011430160286890
:101F6000C04306E05444025810440258CFFFFF001B
:101F70001DE007D46A6DDBF8001021F040511143D9
:101F8000CBF800102868C043000208D4D5F8882098
:101F9000D9F8001021F440011143C9F80010287944
:101FA0000024C04300F00100204309D00EE0EA6F96
:101FB000D9F8001021F440711143C9F80010A8E7C6
:101FC0000198002101F0D8FE00B106462879C043EF
:101FD00000F00200204305D10198012101F0CCFE60
:101FE00000B106462879C04300F00400204305D123
:101FF0000198022101F0C0FE00B106462879C043D5
:1020000000F00800204305D10098002101F044FFB2
:1020100000B106462879C04300F01000204305D1E6
:102020000098012101F038FF00B106462879C0432D
:1020300000F02000044304D10098022101F02CFF9D
:1020400000B916B10120BDE8FE8F0020FBE70000BB
:102050002DE9F05F04000F467ED0DFF83882D8F813
:10206000000000F00F00B8420CD2D8F8001021F0A8
:102070000F013943C8F80010D8F8000000F00F0035
:10208000B84269D12078844D40070AD52069296873
:1020900001F07001884204D9296821F070010143E0
:1020A000296020787C4E361D00070AD560693168AA
:1020B00001F07001884204D9316821F070010143B8
:1020C00031602078C0060AD5A069316801F4E0616A
:1020D000884204D9316821F4E061014331602078FD
:1020E000DFF8B4B180060BF1080B0CD5E169584656
:1020F000DBF8002002F07002914204D9026822F05D
:1021000070020A430260207880070AD5E0682968D7
:1021100001F00F01884204D9296821F00F01014321
:1021200029602078C0073ED05B49A268286818392A
:1021300020F47060104328606068022818D00328DB
:1021400019D00968012819D0490700294ADADFF8AF
:1021500048A1AAF1080A00E044E0DAF8002022F0E1
:1021600007020243CAF80020FFF75CF8814612E03C
:1021700009688903E9E709688901E6E7C905E4E731
:10218000FFF750F8A0EB090141F28830814202D9F3
:102190000320BDE8F09F6168DAF8000000F0380025
:1021A000B0EBC10FECD1207880070AD5E068296830
:1021B00001F00F01884204D2296821F00F01014388
:1021C0002960D8F80010404601F00F01B9420BD940
:1021D000016821F00F0139430160006800F00F0031
:1021E000B84201D00120D4E7207840070AD5206901
:1021F000296801F07001884204D2296821F0700139
:1022000001432960207800070AD56069316801F030
:102210007001884204D2316821F0700101433160BD
:102220002078C0060AD5A069316801F4E0618842CF
:1022300004D2316821F4E0610143316020788006E6
:102240000CD5E1695846DBF8002002F0700291429B
:1022500004D2026822F070020A43026000F06CF8B7
:102260000E492A682B68C2F3032203F00F038A5C2D
:10227000C95C02F01F0201F01F01D040084A20FA99
:1022800001F111600749086007480068BDE8F05F88
:10229000FFF704B80020005218440258AE55000859
:1022A000300000242C0000242400002430B500F06D
:1022B00043F80B4A0B490C4B15681468C5F303220D
:1022C00004F00F048A5C095D02F01F0201F01F0197
:1022D000D040064A20FA01F119601060084630BD6E
:1022E00018440258AE550008300000242C00002489
:1022F00000B5FFF7DBFF05490968054AC1F3021184
:10230000515C01F01F01C84000BD00001C44025890
:10231000AE55000800B5FFF7C9FF05490968054A31
:10232000C1F30221515C01F01F01C84000BD000053
:102330001C440258AE550008454970B54548096827
:10234000434B103B11F0380208D00111082A03D08A
:10235000102A0BD0182A0BD0084670BD19688906C0
:10236000FBD51968C1F3C101C84070BD3A4870BDC2
:102370003749374D18310C1D24350A68096826681D
:102380002D6802F0030406F00102C1F30511C5F344
:10239000CC0515FB02F200EE102AB8EE400AE9B3B4
:1023A0002F4ADFED2E0AB7EE001A6CB1DFED2D1AC1
:1023B000012C01D0022C43D002EE101A1068F8EE66
:1023C000422A81EEA22A1EE01C68A40611D51B68D1
:1023D00001EE901A1168C3F3C103F8EE612AD840E8
:1023E00001EE900AC1F30800F8EE611A81EEA22A0C
:1023F0000BE001EE901ADFED1C2A00BFF8EE611A27
:10240000106882EEA12AC0F3080001EE900AF8EEEF
:10241000611A40EE201A31EE810A00E015E022EE4A
:10242000000A1068C0F34620401C00EE900AF8EE47
:10243000600A80EE201ABCEEC10A10EE100A70BDD0
:1024400001EE901ADFED092AD8E7002070BD0000E8
:10245000104402580090D00340787D0100000039FC
:10246000304402580024744A0024744C20BCBE4BF3
:102470002DE9F05F04007DD0FF4F2078FE4D183726
:10248000DFF8F483103DC00748D0D8F80000396861
:1024900000F03800102815D0182803D101F00300EF
:1024A00002280FD06068B0F5803F12D010B1B0F5AF
:1024B000A02F18D0286820F480302860286820F4E5
:1024C000802009E02868800328D560680028D2D0E1
:1024D00024E0286840F480302860606888B1FEF706
:1024E000A1FE064609E0286840F480202860F0E755
:1024F000FEF798FE801B64287ED828688003F7D5F5
:102500000CE0FEF78FFE064605E000BFFEF78AFEF0
:10251000801B6428F0D828688003F7D420788007CF
:1025200056D5D8F80000DFF85093396810F038001D
:10253000A9F10C090ED0182801D188070AD0E0684B
:10254000A8B3296821F0190101432960FEF76AFE4A
:10255000064628E02868400702D5E06800288AD0AF
:10256000E168286820F0190008432860FEF75AFE49
:10257000064606E0D2E000BFFEF754FE801B0228AC
:10258000BAD828684007F7D5217CD9F8002022F076
:10259000FE4242EA0161C9F8001019E0FEF742FE6E
:1025A000801B0228A8D828684007F7D5ECE7FFE78A
:1025B000286820F001002860FEF734FE064604E09B
:1025C000FEF730FE801B022896D828684007F7D413
:1025D0002078C00646D5D8F80000DFF89C9239680C
:1025E00000F03800A9F10409082812D0182805D1F4
:1025F00001F00300012800E0CEE00AD0E0690028E5
:10260000286820D040F080002860FEF70BFE0646C8
:1026100015E02868C00502D5E06980287ED194F8CD
:102620002010D9F8002022F07C5242EA0161C9F85A
:10263000001017E0FEF7F6FD801B0228A0D82868DE
:10264000C005F7D5EBE720F080002860FEF7EAFD33
:10265000064604E0FEF7E6FD801B022890D82868B5
:10266000C005F7D42078000729D583486169643014
:1026700000298146016811D041F001010160FEF797
:10268000D1FD064605E000BFFEF7CCFD801B022809
:1026900088D8D9F800008007F6D510E021F00101B4
:1026A0000160FEF7BFFD064605E000BFFEF7BAFD7C
:1026B000801B022870D8D9F800008007F6D4207853
:1026C000800623D5A0690028286810D040F48050E7
:1026D0002860FEF7A7FD064605E000BFFEF7A2FD55
:1026E000801B022858D828688004F7D50EE020F413
:1026F00080502860FEF796FD064604E0FEF792FD46
:10270000801B022848D828688004F7D42078400726
:1027100051D5DFF86891D9F8001000E015E141F4D7
:102720008071C9F80010FEF77DFD064605E000BF88
:10273000FEF778FD801B64282ED8D9F80000C0056C
:10274000F6D54D4EA068603601280AD008B105289C
:1027500013D0306820F001003060306820F00400B1
:1027600002E0306840F001003060A06841F2883A31
:1027700098B1FEF757FD81460AE0306840F004004A
:102780003060EEE7FEF74EFDA0EB0901514503D89E
:1027900030688007F6D50EE072E0FEF743FD814613
:1027A00006E000BFFEF73EFDA0EB0901514567D8EA
:1027B00030688007F6D4606A00287CD0DFF8B8A0C3
:1027C000D8F800100AF1200A4FF6F87B0AF1040845
:1027D000C1F3C2010329AAF104096DD002282868B7
:1027E00020F08070286003D0FEF71CFD044681E0D5
:1027F000FEF718FD064604E0FEF714FD801B0228D4
:1028000075D828688001F7D4E26A40F2F33138685D
:1028100054F8283F884340EA021018433860217B6F
:102820004FF4FE0C22894FF0FE47208A4902267D94
:10283000521E401EA1F5007189B2C2F30802114375
:10284000761E0CEA00400143484607EA066211433F
:10285000CAF80010D9F8001021F00101C9F80010E1
:10286000D8F80030266A23EA0B0343EAC601C8F809
:102870000010D9F8001004E0104402580048025833
:1028800035E0A26921F00C011143C9F8001001687C
:10289000E26921F0020111430160016841F48031D5
:1028A0000160016841F400310160016841F4802158
:1028B0000160016801E06CE020E041F0010101608D
:1028C000286840F080702860FEF7ACFC044604E005
:1028D000FEF7A8FC001B022809D828688001F7D55C
:1028E00057E000BFFEF79EFC001B022802D9032020
:1028F000BDE8F09F28688001F4D44AE039680128D7
:10290000DAF8000021D0A26A01F0030393421CD13F
:10291000E26AC1F305118A4217D1216BC0F30802A4
:10292000491E8A4211D1616BC0F34622491E914271
:102930000BD1A16BC0F30642491E914205D1E16B58
:10294000C0F30660491E814201D00120D0E7A16C8E
:102950004646D8F80000C0F3CC00814219D0D9F81F
:1029600000004D4620F00100C9F80000FEF75AFCB7
:102970004FEA0007FEF756FCB842FBD0A26C306865
:1029800020EA0B0040EAC2003060286840F00100F5
:1029900028600020ACE7401EB0F1807F10B501D365
:1029A000012010BD4FF0E02460610F21601702F09C
:1029B00098FC0020A0610721216110BDF0B590F8BE
:1029C0003C20012A43D0012280F83C20D1E9024278
:1029D000204ECD6922F440722243D1E9004322F413
:1029E00080621A4322F400622243D1E9043422F4C3
:1029F00080521A430B6B22F4005222430C8B22F4B8
:102A000080421A43036822F4702242EA04420024FE
:102A100022F08052B34242EA050202D00E4DAB4290
:102A200010D10F8D22F4700CD1E90862CD6A4CEA06
:102A3000075121F08071314321F00071114321F0E1
:102A400000522A435A6480F83C400020F0BD022026
:102A5000F0BD00000000014000040140F0B590F816
:102A60003C20012A41D0224E012480F83C40022221
:102A700080F83D2002681F4D5368B242D2F808C06A
:102A800001D0AA4203D14F6823F470033B430F687F
:102A900023F070031F4357600268B24219D0B2F1AD
:102AA000804F16D0144B9A4213D0144B9A4210D038
:102AB000134B9A420DD0AA420BD0124B9A4208D027
:102AC000114B9A4205D0114B9A4202D0104B9A42B8
:102AD00004D189682CF0800319439160002180F8AB
:102AE0003D4080F83C100846F0BD0220F0BD0000DB
:102AF00000000140000401400004004000080040C4
:102B0000000C0040001800400040014000E0004080
:102B100000E4004010B5040003D094F83D0010B16B
:102B200007E0012010BD002084F83C00204600F0A2
:102B300023F8022084F83D002068211D01F036FBB7
:102B4000012084F8480084F83E0084F83F0084F8AF
:102B5000400084F8410084F8420084F8430084F87F
:102B6000440084F8450084F8460084F8470084F85F
:102B70003D00002010BD000008B50C4A01680C485B
:102B8000914207D1016841F001010160006800F045
:102B9000010009E0074A914207D1016841F4803100
:102BA0000160006800F48030009008BD0000014022
:102BB000F04402580040014090F83D10012901D036
:102BC00001207047174B0222016880F83D2099428E
:102BD0001AD0B1F1804F17D01348814214D0134856
:102BE000814211D0124881420ED0124881420BD04E
:102BF0001148814208D01148814205D010488142D5
:102C000002D01048814207D188680F4A1040062838
:102C100006D0B0F5803F03D0086840F0010008609E
:102C20000020704700000140000400400008004000
:102C3000000C00400004014000180040004001402A
:102C400000E0004000E4004007000100016841F29C
:102C500011130A6A1A4207D10A6A9B101A4203D159
:102C60000A6822F001020A60012180F83D1000206C
:102C70007047000070B5044690F83C00002501281C
:102C800014D03A4B012684F83C60022084F83D00C1
:102C900022689068184020F47F409060086870288F
:102CA0002FD010DC10F00F0F03D022E04FF0020005
:102CB00070BD4FEA2012072A1BD2DFE802F05353FF
:102CC00053534B394100B0F1101F4BD009DCB0F524
:102CD000805F0FD0B0F5005F1ED0B0F5801F08D127
:102CE00040E0A0F5801120393CD010293AD02029AD
:102CF00038D0012584F83D60002084F83C00284647
:102D000070BD4A682068D1E9021301F0CEFA20684C
:102D1000816841F0770109E04A682068D1E902132F
:102D200001F0C3FA2068816841F480418160E1E7E5
:102D3000CA684968206801F065FC2068502106E0F7
:102D4000CA684968206801F06EFC2068602101F0C3
:102D5000B5FACFE7CA684968206801F053FC2068DB
:102D60004021F4E7226801461046F0E788FFCEFFD5
:102D700010B586B0044614216846FDF76AFC0E497A
:102D80002068884215D10D48016841F010010160AA
:102D900000680423602100F01000059000200091DD
:102DA00002226946CDE90120CDE903030448FEF77C
:102DB00021F906B010BD000000400140E044025877
:102DC0000010025870B5044690F83C0000260D46ED
:102DD00001280BD0012084F83C000C2A4AD007DCE3
:102DE00082B1042A20D0082A06D131E0022070BD29
:102DF000102A53D0142A63D00126002084F83C0006
:102E0000304670BD206801F063FA2068816941F0A6
:102E1000080181612068816921F0040181612068D5
:102E20002A698169114311E0206801F0A3FA206842
:102E3000816941F4006181612068816921F48061C8
:102E4000816120682969826942EA01218161D4E7B0
:102E5000206801F0DBFA2068C16941F00801C16116
:102E60002068C16921F00401C16120682A69C16933
:102E7000114311E0206801F015FB2068C16941F49D
:102E80000061C1612068C16921F48061C16120686D
:102E90002969C26942EA0121C161AEE7206801F0F7
:102EA0003DFB2068416D41F0080141652068416D9E
:102EB00021F00401416520682A69416D114311E048
:102EC000206801F065FB2068416D41F400614165B7
:102ED0002068416D21F48061416520682969426D57
:102EE00042EA0121416588E710B5040003D094F857
:102EF0003D0010B107E0012010BD002084F83C0027
:102F0000204600F022F8022084F83D002068211DB0
:102F100001F04CF9012084F8480084F83E0084F860
:102F20003F0084F8400084F8410084F8420084F8AF
:102F3000430084F8440084F8450084F8460084F88F
:102F4000470084F83D00002010BD704730B50446AE
:102F50004FF0020269B1042912D0082917D00C29B8
:102F60001CD0102921D094F84300012824D001203E
:102F700030BD94F83E000128F9D184F83E201DE0D0
:102F800094F83F000128F2D184F83F2016E094F82D
:102F900040000128EBD184F840200FE094F8410074
:102FA0000128E4D184F8412008E094F84200012887
:102FB000DDD184F8422001E084F84320012220681A
:102FC00001F066F91E4920681E4A1F4B884209D04D
:102FD000904207D0984205D01C4DA84202D01C4D0B
:102FE000A84203D1456C45F40045456420688842F9
:102FF00018D0B0F1804F15D01649884212D016492A
:1030000088420FD0154988420CD090420AD014490A
:10301000884207D0984205D01249884202D012490E
:10302000884207D18168114A1140062906D0B1F5BE
:10303000803F03D0016841F001010160002030BDF4
:1030400000000140000401400040014000440140F4
:10305000004801400004004000080040000C00400F
:103060000018004000E0004000E4004007000100BC
:1030700030B590F88410012918D0012280F88420FE
:103080002421C0F888100022202401680B680D68F4
:1030900023F0005325F001050D60426601680B60C6
:1030A000C0F8884080F88420104630BD022030BD32
:1030B0007047704770B5044690F8840001281DD011
:1030C000012284F884202420C4F888002068056840
:1030D000026822F0010202602068826822F06062C9
:1030E0000A438260204601F0B1FA226820210020C4
:1030F0001560C4F8881084F8840070BD022070BD8B
:1031000070B5044690F8840001281DD0012284F88F
:1031100084202420C4F8880020680568026822F012
:10312000010202602068826822F060420A438260E5
:10313000204601F08BFA2268202100201560C4F897
:10314000881084F8840070BD022070BD70477047FD
:10315000704700002DE9F04107680025044640F65D
:103160000F030226F8693968BA6818420AD1830643
:103170007ED501F0200302F0805C53EA0C0377D087
:10318000616F74E1CF4BDFF840C3134001EA0C0CD0
:1031900053EA0C0C6CD05FEAC07C0CD05FEAC15CD7
:1031A00009D54FF0010CC7F820C0D4F8907047F053
:1031B0000107C4F89070870709D5D70707D027689B
:1031C0003E62D4F8906046F00406C4F8906046076A
:1031D0000AD5D60708D0276804263E62D4F8906046
:1031E00046F00206C4F8906006070CD501F02006F0
:1031F0001E4308D0266808233362D4F8903043F089
:103200000803C4F8903003050BD54B0109D5266897
:103210004FF400633362D4F8903043F02003C4F8D5
:103220009030D4F89030002B3DD0800609D501F0C5
:10323000200002F08051084303D0616F09B120469D
:1032400088472168D4F890008968490602D410F0B4
:10325000280F2AD0204601F0DFFA20688068400657
:103260001ED52068083050E8001F21F0400100E022
:1032700021E040E80012002AF3D1D4F8800078B1B0
:1032800092490165D4F88000FDF760FD00280AD05E
:10329000D4F88000016D00E02046BDE8F041084709
:1032A0002046FFF755FFBDE8F0812046FFF750FFAD
:1032B000C4F89050F7E7D4F86CC02023BCF1010F9C
:1032C0007ED15FEAC06C7BD55FEAC16C78D51020F7
:1032D000386220688068400673D5D4F880107C4A34
:1032E0000868904234D07A4A1832904230D0784AF6
:1032F000303290422CD0764A4832904228D0744ADC
:103300006032904224D0724A7832904220D0704A83
:10331000903290421CD06E4AA832904218D06D4A2A
:10332000904215D06B4A1832904211D0694A30321F
:1033300090420DD0674A4832904209D0654A6032C7
:10334000904205D0634A7832904201D0614A90326F
:1033500040680004000CA6D0B4F85C208242A2D9D8
:10336000A4F85E00C869B0F5807F2FD0216851E8CD
:10337000000F20F4807041E80002002AF6D1206896
:10338000083050E8001F21F0010140E80012002A37
:10339000F5D12068083050E8001F21F0400140E8D6
:1033A0000012002AF5D1C4F88C30E566216851E896
:1033B000000F20F0100041E80002002AF6D101E0E1
:1033C00040E00BE0D4F88000FDF710FB2667B4F86E
:1033D0005C00B4F85E10401A81B22FE0B4F85C00D3
:1033E000B4F85E10B4F85E20401A81B2002AB2D060
:1033F0000029B0D0226852E8000F20F4907042E813
:103400000007002FF6D1344F206800F1080050E883
:10341000002F02EA070240E8002CBCF1000FF3D1B4
:10342000C4F88C30E5666567206850E8002F22F00C
:10343000100240E80023002BF6D126672046FFF754
:1034400037FE30E7C60209D5560207D54FF4801083
:1034500038622046BDE8F041FFF779BE06060AD57E
:1034600001F0800602F40002164304D0A16F002987
:103470007FF412AF17E7420611D54A060FD5204652
:10348000026852E8001F21F0400142E80014002CBD
:10349000F6D1C0F88830856700F01EFA03E7020213
:1034A00006D54A0004D52046BDE8F041FFF74EBEE0
:1034B000C001C6D50029C4DA2046BDE8F041FFF7B7
:1034C000F8BD0000010000102001000403480008BE
:1034D0001000024010040240FEFFFFEF10B5040090
:1034E00003D0D4F8880010B107E0012010BD0020FF
:1034F00084F88400204600F027F82420C4F88800CF
:103500002068016821F001010160A06A10B1204625
:1035100001F0BEF8204601F011FC0128E6D0206839
:10352000416821F4904141602068816821F02A01BE
:1035300081602068016841F0010101602046BDE81A
:10354000104001F009B900002DE9F047B4B004467D
:1035500014212EA8FDF77DF8B8216846FDF779F80B
:10356000694D0226694907272068103DDFF89881D8
:10357000002488422BD100201E940121CDE90010A7
:103580006846FEF7C7F808B1FDF72EFAD8F8001024
:1035900041F01001C8F80010D8F8000000F0100049
:1035A0003390286840F00100286028682EA900F0B8
:1035B000010033904FF4C0602E90CDE92F64544841
:1035C000CDE93147FDF716FD34B0BDE8F08751492C
:1035D000DFF8449188422ED100201D940221CDE9CC
:1035E00000106846FEF796F808B1FDF7FDF9D9F826
:1035F000001041F40031C9F80010D9F8000000F4BF
:1036000000303390286840F00800286028682EA910
:1036100000F00800339060202E90CDE92F643F48E1
:10362000CDE93147FDF7E6FC002226201146FDF7E3
:10363000BFFE262033E03A49DFF8E8A0884231D1C6
:1036400000201D940221CDE900106846FEF762F8C3
:1036500008B1FDF7C9F9D9F8001041F48021C9F883
:103660000010D9F8000000F480203390286840F062
:103670000400286028682EA900F0040033904FF45D
:1036800040602E90CDE92F64CDE931475046FDF7DB
:10369000B1FC002227201146FDF78AFE2720FDF706
:1036A00079FE91E7204988428ED100201E940121A5
:1036B000CDE900106846FEF72DF808B1FDF794F942
:1036C000D8F8001041F02001C8F80010D8F8000028
:1036D00000F020003390286840F00400286028683B
:1036E0002EA900F004003390C0202E90CDE92F6465
:1036F000CDE931475046FDF77DFC002247201146B9
:10370000FDF756FE4720CAE7F0440258001001407A
:103710000000025800440040E8440258000C0258DF
:1037200000480040000802580014014030B4D0F8AE
:103730008C30202B02D0022030BC7047A9B1A2B13E
:103740000B4D00240368C466AB420BD05B681B02C0
:1037500008D5046854E8003F43F0806344E800352E
:10376000002DF6D130BC01F0D7BC0120E4E7000009
:10377000000C005830B40068234A2449904215D107
:10378000C87901280CD002280AD0032808D00428C0
:1037900006D028B1062801D0072832D1887200E06F
:1037A0000872012219491A48C91D27E0194A904296
:1037B0000FD10878184C4B7A421CD2B2092A2354F4
:1037C0000A7001D100200870104901221348093104
:1037D00014E0134A904214D10C48103002783C2A6D
:1037E00008D142783B2A05D1837801224B71C078F9
:1037F00088714A70042205490A48103130BCFFF72D
:1038000095BF30BC70470000004400400A0000240F
:103810006C010024001401403400002494020024B0
:1038200000480040000200242DE9F8430446D0F887
:103830008800984616460D46202802D00220BDE892
:10384000F883A5B19EB10021C4F890102120C4F8DE
:1038500088001834FDF7E6FC814654F8100CA68762
:10386000E6872027183CB0F5805F02D003E00120F6
:10387000E5E7206910B12E46002510E000260EE095
:103880008021204601F0D0FCC0B9DEB116F8010B52
:1038900021688862B4F85600401EA4F85600B4F8B7
:1038A00056004B464FF00002CDF800800028E7D1CB
:1038B0004FF04001204601F0B7FC48B1C4F88870D1
:1038C0000320BCE735F8020B2168C0F30800E0E7ED
:1038D000C4F888700020B2E77047FEE72DE9F04198
:1038E00086B014216846FCF7B4FE2748016841F011
:1038F00010010160016801F010010591016841F0BB
:1039000004010160016801F004010591016841F0C2
:1039100080010160016801F080010591016841F0BA
:1039200001010160016801F001010591016841F0A8
:103930000801016000680022144F202100F00800F7
:1039400005903846FDF769FCDFF844804FF40046E7
:10395000002231464046FDF760FC0125022100248B
:103960002020CDE90241CDE9000569463846FDF742
:1039700041FB00966946CDE9015440460394FDF7AA
:1039800039FB06B0BDE8F081E0440258000002585F
:103990000010025810B59CB000241C21009414A8FB
:1039A000019402940394049405940694FCF751FE48
:1039B000342107A8FCF74DFE2D484FF489722B499E
:1039C00044F61F6380E81600C0E903344461846153
:1039D000FFF7A0F808B1FDF707F84FF4805000900A
:1039E00023486946FFF746F908B1FCF7FDFF204878
:1039F000FFF77AFA08B1FCF7F7FF1D4804A9049411
:103A00000694FFF72BF808B1FCF7EEFF14AA40F27A
:103A1000DC51602082E813001548002214A9179495
:103A2000189419941A94FFF7CDF908B1FCF7DCFF4C
:103A30000F48042214A9FFF7C5F908B1FCF7D4FF19
:103A40004FF400500794089407A909940A94CDE90B
:103A50000B4007480D941394FEF7B0FF08B1FCF734
:103A6000C3FF0348FFF784F91CB010BD00400140BC
:103A70008C00002410B588B01848002416494FF473
:103A800089724FF6FF730094019402940394049496
:103A90000594069480E81600C0E90334446184610B
:103AA000FFF738F808B1FCF79FFF4FF48050009003
:103AB0000A486946FFF7DEF808B1FCF795FF0748AA
:103AC00004A9049405940694FEF7C8FF002801D0C9
:103AD000FCF78AFF08B010BD000001404000002440
:103AE0001848002110B5164C0C224FF4E133046045
:103AF000C0E90131C160C0E904128161C1610162A4
:103B000041628162FFF7EAFC08B1FCF76DFF0D48E6
:103B10000021FFF7F5FA08B1FCF766FF094800211C
:103B2000FFF7C8FA08B1FCF75FFF0648FFF7A0FAF5
:103B3000002803D0BDE81040FCF756BF10BD0000C0
:103B400000100140D80000241848002110B5164C80
:103B50000C224FF4E1330460C0E90131C160C0E9D7
:103B600004128161C161016241628162FFF7B6FCAA
:103B700008B1FCF739FF0D480021FFF7C1FA08B181
:103B8000FCF732FF09480021FFF794FA08B1FCF76F
:103B90002BFF0648FFF76CFA002803D0BDE8104061
:103BA000FCF722BF10BD0000004400406C0100245F
:103BB0001848002110B5164C0C224FF4E133046074
:103BC000C0E90131C160C0E904128161C1610162D3
:103BD00041628162FFF782FC08B1FCF705FF0D48E6
:103BE0000021FFF78DFA08B1FCF7FEFE094800211D
:103BF000FFF760FA08B1FCF7F7FE0648FFF738FA5E
:103C0000002803D0BDE81040FCF7EEBE10BD000058
:103C100000480040000200241848002110B5164C4E
:103C20000C224FF416530460C0E90131C160C0E9B1
:103C300004128161C161016241628162FFF74EFC41
:103C400008B1FCF7D1FE0D480021FFF759FA08B181
:103C5000FCF7CAFE09480021FFF72CFA08B1FCF76F
:103C6000C3FE0648FFF704FA002803D0BDE8104061
:103C7000FCF7BABE10BD00000014014094020024FD
:103C8000FEE7FEE770B5194EC0F1400500EE105A90
:103C90000C462DED028BB8EEC08A3188DFED140A98
:103CA000681A00B200EE100A282DB8EEC00A00EE25
:103CB000208A01DC00F050F8BDEEC80A22884FF4DB
:103CC000527110EE100A02FA80F080B22080884211
:103CD000358003D94FF40761884200D321802088C2
:103CE000BDEC028BBDE8704000F046BA0000002435
:103CF0009A99993E154BC0F1460030B400EE100A77
:103D00009FED131A5A8840F29244F8EEC00A821AC4
:103D10000D8812B200EE102AB8EEC00A40EE010A79
:103D2000BDEEE00A10EE102A05FA82F292B20A8085
:103D3000A242588001D80C8004E040F226708242F2
:103D400000D30880088830BC00F01CBA00000024B2
:103D50009A99993E7047000001220248D103FDF76D
:103D60005CBA000000100258024800224FF40041E3
:103D7000FDF753BA001002582DE9F047454D0446AF
:103D800089464FF0000A2868C04380070AD0414E98
:103D9000283E306820F080603060FDF743FA074627
:103DA000B04608E00120BDE8F08700BFFDF73AFA11
:103DB000C01B022867D8D8F800000001F6D420689C
:103DC00029684FF4FE0721F47C313E0241EA0030BD
:103DD0002860207AA389B4F804C040022D4D2D49F3
:103DE0005B1E227CACF1010C1035091DA0F50070A2
:103DF00080B2521ECCF3080C07EA034340EA0C00E1
:103E0000184306EA0262104328600868626920F0DD
:103E1000C000104308600A68A06922F02002024333
:103E20000A60281D0A6822F010020A6002684FF634
:103E3000F873E4699A4342EAC40202600868B9F17F
:103E4000000F40F010020A6011D00868B9F1010FAC
:103E500011D040F400100860D8F80000444640F04B
:103E60008060C8F80000FDF7DDF905460DE0086840
:103E700040F40020EFE740F48010ECE7FDF7D2F9C2
:103E8000401B022801D903208DE720680001F5D5E9
:103E9000504688E7284402582DE9F047454D04462E
:103EA00089464FF0000A2868C04380070AD0414E77
:103EB000283E306820F080503060FDF7B3F90746A7
:103EC000B04608E00120BDE8F08700BFFDF7AAF981
:103ED000C01B022867D8D8F800008000F6D42088DC
:103EE00029684FF4FE0721F07C713E0241EA005040
:103EF0002860207AA389B4F804C040022D4D2D49D2
:103F00005B1E227CACF1010C1835091DA0F5007078
:103F100080B2521ECCF3080C07EA034340EA0C00BF
:103F2000184306EA0262104328600868626920F4B8
:103F30004060104308600A68A06922F400720243DE
:103F40000A60281D0A6822F480720A6002684FF62F
:103F5000F873E4699A4342EAC40202600868B9F15E
:103F6000000F40F480720A6011D00868B9F1010FA7
:103F700011D040F080700860D8F80000444640F04E
:103F80008050C8F80000FDF74DF905460DE00868BF
:103F900040F48000EFE740F40000ECE7FDF742F961
:103FA000401B022801D903208DE720688000F5D549
:103FB000504688E728440258704710B50C4600F078
:103FC000DBF82046BDE8104000F0DCB800F0E0B8B7
:103FD000018840F29242914201D9491F018088B282
:103FE00000F0D0B80188B1F5076F01D2491D0180FA
:103FF00088B200F0C1B80188B1F5527F01D9491FDC
:10400000018088B200F0B8B8018840F2267291426F
:1040100001D2491D018088B200F0B4B8FDF708B99B
:1040200070B59CB04C216846FCF713FB202113A807
:10403000FCF70FFB0220FDF7EDF91E48016821F4A3
:10404000404101600168002401F440411B91016876
:104050008904FCD5022009900121C2030A23DC2532
:10406000CDE900120AAA042682E82900CDE90D1044
:10407000CDE910640F9068461294FEF7F9F908B183
:1040800072B6FEE740201A9008230501CDE91630EC
:1040900013ABCDE918053F21032283E8160013A8CE
:1040A0001146FDF7D5FF002801D072B6FEE71CB01F
:1040B00070BD0000184802582748F0B5274A01682B
:1040C00041F470010160106800F00F00072804D26D
:1040D000106820F00F00C01D106021490020204C06
:1040E00010340B681F4D43F001030B6020600B6818
:1040F0002B400B60136803F00F03072B04D91368E0
:1041000023F00F03DB1D1360154C174A1834174BAF
:10411000261D371D2060124C154D28343060261D99
:104120003860371D23603B1D35601C1D3A60251D1E
:104130002E1D1860331D22602860326018600A68E6
:1041400043F2D204064B0B4D22F4802260330A6006
:1041500018602C60F0BD000088ED00E000200052E7
:10416000004402587FEDF6EA8002010100020202DB
:104170000000FF0100400052014909684863704790
:104180008C00002401490968886370478C00002472
:104190000548002110B5FEF7D9FEBDE810400248E1
:1041A0000421FEF7D3BE00008C0000242DE9F04767
:1041B0002D4B4FF0804A2D4D026898422C4E2D4FCA
:1041C0002D4C09D0504507D0A84205D0B04203D0AD
:1041D000B84201D0A04205D1D1F804C022F070024B
:1041E0004CEA0202DFF894C0DFF894809842DFF8CE
:1041F000949015D0504513D0A84211D0B0420FD0A2
:10420000B8420DD0A0420BD0604509D0404507D040
:10421000484505D01C4DA84202D01C4DA84203D1F0
:10422000CD6822F440722A434D6922F080022A436D
:10423000026098428A68C2620A68826207D0A0421D
:1042400005D0604503D0404501D0484501D10969FA
:104250000163012141610169C90703D0016921F0AE
:1042600001010161BDE8F087000001400004004049
:1042700000080040000C00400004014000400140E4
:10428000004401400048014000E0004000E40040DC
:1042900010B5046A012301F01F018B409C430462A6
:1042A0008A40016A1143016210BD42EA0322836819
:1042B0000A4323F47F410A4382607047034B8268BC
:1042C0001A400A4342F00701816070478FFFCFFF19
:1042D0002DE9F04FDFF88480214EDFF88890DFF879
:1042E00088B0026A036AB042DFF880A022F0020CB4
:1042F0001F4F23F001020262426885698B680C68D7
:1043000005EA080525F0030543EA0C0344EA050421
:1043100007D0484505D0584503D0504501D0B84294
:1043200005D1CD6823F008031D4325F00403B042F6
:1043300007D0484505D0584503D0504501D0B84274
:1043400005D122F44076D1E9055235432A43426033
:104350008461496841630362BDE8F08F8FFFFEFF0F
:1043600000000140000401400040014000440140C1
:1043700000480140F0B5DFF87CE01F4C1F4D026A99
:10438000036AA04222F0200623F010030362426871
:104390008369D1F808C00F6803EA0E0323F4407E56
:1043A00046EA0C134EEA072601D0A84206D1CF6890
:1043B00023F0800343EA071323F04003A0420AD00E
:1043C000A84208D00E4CA04205D00E4CA04202D00C
:1043D0000D4CA04207D1D1E9054522F4406242EAE2
:1043E000840242EA85024260866149688163036211
:1043F000F0BD0000FF8FFFFE0000014000040140FF
:10440000004001400044014000480140F0B5DFF8A1
:104410007CE01F4D1F4E026A036AA84222F4007717
:1044200023F4807303624368C269D1F808C002EACA
:104430000E020C6822F0030E47EA0C2244EA0E0436
:1044400001D0B04206D1CF6822F4006242EA0722CE
:1044500022F48062A8420AD0B04208D00E4DA84291
:1044600005D00E4DA84202D00D4DA84207D1D1E98A
:10447000055623F4405343EA051343EA0613436009
:10448000C4614968C1630262F0BD00008FFFFEFF96
:104490000000014000040140004001400044014090
:1044A00000480140F0B5046A026A22F480520262B8
:1044B0004268C36924F40054DFF848C08E680D6870
:1044C00003EA0C03104F23F4407344EA0634B84265
:1044D00043EA05230BD00D4DA84208D00C4DA8424D
:1044E00005D00C4DA84202D00B4DA84204D14D6915
:1044F00022F4804242EA85124260C3614968016445
:104500000462F0BDFF8FFFFE000001400004014087
:10451000004001400044014000480140F0B5164F02
:10452000164B026A046A984222F4003524F4803360
:1045300003624268436D0E890C6803EA070344EA8C
:10454000030445EA06430BD00D4DA84208D00D4D9B
:10455000A84205D00C4DA84202D00C4DA84204D16F
:104560004D6922F4803242EA05224260446549687E
:1045700081650362F0BD00008FFFFEFF0000014077
:104580000004014000400140004401400048014057
:10459000F0B5164F164B026A046A984224F4801351
:1045A000036222F400144268436D0E890D6803EA29
:1045B000070344EA065443EA05230BD00D4DA842F5
:1045C00008D00D4DA84205D00C4DA84202D00C4D8C
:1045D000A84204D14D6922F4802242EA8522426039
:1045E00043654968C1650462F0BD0000FF8FFFFEAE
:1045F000000001400004014000400140004401402F
:104600000048014010B5036A046A23F00A0324F04D
:104610000104046284690B4324F0F00141EA0211B1
:104620008161036210BD10B5036A046A23F0A00320
:1046300024F010040462846943EA011124F47043F5
:1046400043EA02328261016210BD000030B5416E62
:10465000B9B101680D4B03F108048A688968C2F397
:104660004262490F5D5C615C2D01B5FBF1F1A0F880
:104670006A10995CA25C0901B1FBF2F1A0F8681024
:1046800030BD0121A0F86A10F8E700009E5500082F
:1046900090F82810090706D50168836B4A6822F450
:1046A00000421A434A6090F82810C90706D00168F2
:1046B000C36A4A6822F400321A434A6090F828100C
:1046C000890706D50168036B4A6822F480321A43D1
:1046D0004A6090F82810490706D50168436B4A687C
:1046E00022F480221A434A6090F82810C90606D5A1
:1046F0000168C36B8A6822F480521A438A6090F87A
:104700002810890606D50168036C8A6822F40052D5
:104710001A438A6090F82810490611D50168436C45
:104720004A6822F480121A434A60416CB1F5801F36
:1047300006D10168836C4A6822F4C0021A434A60B9
:1047400090F82810090606D50168C26C486820F464
:1047500000201043486070472DE9F84300250446C7
:10476000C0F89050FCF75EFD8046206820266FF070
:104770007E470068000713D50022434631042046D7
:10478000009700F051FD58B1216851E8000F20F06A
:10479000800041E80002002AF6D1C4F8886021E0D8
:1047A00020680068400722D5002243464FF480016C
:1047B0002046009700F038FDC8B1206850E8001F7F
:1047C00021F4907140E80012002AF6D120680830E8
:1047D00050E8001F21F0010140E80012002AF5D145
:1047E000C4F88C60032084F88450BDE8F883C4F8D2
:1047F0008860C4F88C60E5662567002084F88450E2
:10480000F3E710B5806B0021A0F85E10A0F85610F9
:10481000FEF79EFC10BD000010B5026852E8001FB4
:1048200021F4907142E80013002BF6D10E4B026880
:10483000083252E8001F194042E80014002CF6D15B
:10484000C16E012908D1026852E8001F21F0100151
:1048500042E80013002BF6D100212022C0F88C2062
:10486000C166416710BD0000FEFFFFEF10B5D0F834
:104870008C10B0F860202229016804D0886940F0CB
:104880000800886110BD496A836D11401980816DEF
:10489000891C8165B0F85E10491EA0F85E10B0F862
:1048A0005E100029EED1016851E8002F22F49072C9
:1048B00041E80023002BF6D10168083151E8002FB0
:1048C00022F0010241E80023002BF5D1184B002112
:1048D00002682024C0F88C40416701679A420BD0DF
:1048E0005268120208D5036853E8002F22F0806254
:1048F00043E80024002CF6D1C26E012A02D0FEF754
:1049000039FF10BDC166026852E8001F21F0100196
:1049100042E80013002BF6D10168CA69D243D206DF
:1049200001D410220A62B0F85C10FEF7C1FB10BD82
:10493000000C00582DE9F04704460068C569D0F81E
:1049400000A0D0F80880D4F88C10B4F86060222958
:1049500005D0816941F008018161BDE8F087B4F8B4
:1049600068704FF0000975E02068A16D406A304022
:104970000880A06D801CA065B4F85E00401EA4F8FD
:104980005E002068C569690730D0E9070AD05FEA90
:10499000CA5107D501210162D4F8900040F001000E
:1049A000C4F89000A8070BD55FEAC87008D021684A
:1049B00002200862D4F8900040F00400C4F890008F
:1049C00068070BD55FEAC87008D021680420086228
:1049D000D4F8900040F00200C4F89000D4F89000A1
:1049E00020B12046FEF7B4FBC4F89090B4F85E0006
:1049F00080BB216851E8000F20F4807041E800027C
:104A0000002AF6D1304A2068083050E8001F1140D3
:104A100040E80013002BF6D12C4B202120684A4699
:104A2000C4F88C10C4F87490C4F8709098420BD0FD
:104A30004068000208D5216851E8000F20F080602E
:104A400041E80003002BF6D1E06E012825D0204676
:104A5000FEF790FE0FB1A80686D4B4F85E000028D9
:104A60003FF47BAFB4F8681081427FF676AF2068E0
:104A7000083050E8001F21F0805140E80012002A61
:104A8000F5D113486067206850E8001F41F020010D
:104A900040E80012002AF6D15FE7E266206850E89D
:104AA000001F21F0100140E80012002AF6D1206812
:104AB000C169C943C90601D410210162B4F85C1070
:104AC0002046FEF7F5FAC5E7FEFFFFEF000C0058A1
:104AD0006D48000810B5D0F88C10B0F8602022297D
:104AE000016804D0886940F00800886110BD496AF7
:104AF000836D11401970816D491C8165B0F85E109D
:104B0000491EA0F85E10B0F85E100029EED10268D0
:104B100052E8001F21F4907142E80013002BF6D1F7
:104B20000168083151E8002F22F0010241E800231A
:104B3000002BF5D1184B002102682024C0F88C40CE
:104B4000416701679A420BD05268120208D5026889
:104B500052E8003F23F0806342E80034002CF6D195
:104B6000C26E012A02D0FEF705FE10BDC1660268C2
:104B700052E8001F21F0100142E80013002BF6D18B
:104B80000168CA69D243D20601D410220A62B0F881
:104B90005C10FEF78DFA10BD000C00582DE9F047AF
:104BA00004460068C569D0F800A0D0F80880D4F8A1
:104BB0008C10B4F86060222905D0816941F00801A9
:104BC0008161BDE8F087B4F868704FF0000975E0C6
:104BD0002068A16D406A30400870A06D401CA0653F
:104BE000B4F85E00401EA4F85E002068C56969073D
:104BF00030D0E9070AD05FEACA5107D50121016226
:104C0000D4F8900040F00100C4F89000A8070BD53C
:104C10005FEAC87008D0216802200862D4F89000CA
:104C200040F00400C4F8900068070BD55FEAC87034
:104C300008D0216804200862D4F8900040F00200F7
:104C4000C4F89000D4F8900020B12046FEF780FA16
:104C5000C4F89090B4F85E0080BB216851E8000F62
:104C600020F4807041E80002002AF6D1304A206822
:104C7000083050E8001F114040E80013002BF6D127
:104C80002C49202320684A46C4F88C30C4F874901C
:104C9000C4F8709088420BD04068000208D52168A3
:104CA00051E8000F20F0806041E80003002BF6D1AE
:104CB000E06E012825D02046FEF75CFD0FB1A80666
:104CC00086D4B4F85E0000283FF47BAFB4F86810D7
:104CD00081427FF676AF2068083050E8001F21F04F
:104CE000805140E80012002AF5D11348606720681F
:104CF00050E8001F41F0200140E80012002AF6D1E0
:104D00005FE7E266206850E8001F21F0100140E8EC
:104D10000012002AF6D12068C169C943C90601D42E
:104D200010210162B4F85C102046FEF7C1F9C5E716
:104D3000FEFFFFEF000C0058D54A00082DE9F043B4
:104D400004468068E24E87B0E24B2168D4E904272C
:104D5000D4F81CC010430A68002547EA0C07384302
:104D6000324002430A602068E268416821F4405101
:104D7000114341602268A1699A4201D0206A01432F
:104D80009668DFF854C3D54FD54806EA0C060E43A3
:104D900096602168666ACA6A22F00F023243CA62CC
:104DA0002268BA420ED1006800F0380018286FD08F
:104DB0007ADCB8B308286CD010286BD18BE0282897
:104DC00068D18EE0C7498A4209D1006800F0070027
:104DD00006285FD2DFE800F0507D7F818385C249DD
:104DE0008A4209D1006800F0070006287BD2DFE87C
:104DF00000F0437072747678BC498A4209D1006829
:104E000000F0070006286ED2DFE800F03663656721
:104E1000696BB7498A420BD1006800F00700062889
:104E200061D200E043E0DFE800F0275456585A5CB6
:104E3000B0498A4206D1006800F0380018284CD0EA
:104E4000B7DD31E0AC498A4209D1006800F00700C3
:104E5000062848D2DFE800F0103D3F414345A7490E
:104E60008A420BD1006800F0070006283BD2DFE839
:104E700000F0033032343638002035E0A0498A4251
:104E800009D1006800F03800182826D091DD0BE029
:104E900023E01EE027E09B498A420AD1006800F027
:104EA0003800182819D084DD202888D11CE0012082
:104EB0001AE09A4217D18A48001D006800F00700E6
:104EC000062810D2DFE800F0030507090B0D0220C9
:104ED0000AE0042008E0082006E0102004E020207A
:104EE00002E0402000E080208749DFF820829A42DB
:104EF000874A4FF400434FEA21174FF000064ED186
:104F000010281AD006DC022809D004280BD0082863
:104F10007ED10DE020283ED0402879D13DE0FCF73D
:104F2000A3FA014610E06846FCF7B0FA01990BE0DD
:104F300003A8FCF74DFB049906E01068800605D530
:104F40001068C0F3C100C140002970D0606A676872
:104F500038F8102007EB4703B1FBF2F0834257D833
:104F6000B0EB073F54D8002308461946FBF726FA52
:104F700002467808130E120243EA012110183A463D
:104F800071410023FBF71AFA624AA0F54071914281
:104F90003ED821688FE03946D8E71946D6E7D4F8DD
:104FA0001CC04FF6EF799C4546D1082819D005DC86
:104FB00058B101280CD0042875D10DE0102815D067
:104FC000202835D040286ED134E0FDF791F901E07A
:104FD000FDF7A0F9014610E06846FCF757FA019981
:104FE0000BE003A8FCF7F4FA049906E010688006C9
:104FF00004D51068C0F3C100C140C1B1636A6068E4
:1050000038F81330B1FBF3F1490001EB500100E037
:1050100049E0B1FBF0F0A0F11001494543D84FF64B
:10502000F0732168C0F342021840104343E043E0AC
:105030003946E3E71946E1E7082819D005DC58B1FD
:1050400001280CD004282ED10DE0102815D02028DE
:105050002BD0402827D12AE0FDF74AF901E0FDF7DF
:1050600059F9014610E06846FCF710FA01990BE087
:1050700003A8FCF7ADFA049906E01068800604D591
:105080001068C0F3C100C140B1B1636A606838F80C
:105090001330B1FBF3F101EB5001B1FBF0F0A0F1E3
:1050A0001001494505D9012506E03946EDE71946C5
:1050B000EBE7216880B2C8600120A4F86A00A4F878
:1050C000680028466667A66707B0BDE8F083000061
:1050D000F369FFCF000C0058FFF4FF1100100140EE
:1050E000544402580044004000480040004C004036
:1050F000005000400014014000780040007C004057
:1051000000180140001C01400090D00386550008A3
:1051100000440258FFFC0F0070B5836800248165CD
:105120004FF48056A0F85C20B342A0F85E204FF008
:10513000FF01446704D1036903BB40F2FF111DE086
:105140004FF07F05C3B1B3F1805F1AD0A0F8604083
:105150002221C0F89040C0F88C100168083151E855
:10516000003F43F0010341E80034002CF5D1416ECB
:10517000B1F1005F0CD02FE0036933B9A0F86010E3
:10518000E6E7016909B13F21F8E7A0F86050DFE7E1
:10519000B0F8681091421FD88168B14201D101690D
:1051A000B9B11D490269416742B1026852E8001F66
:1051B00041F4807142E80013002BF6D101680831F8
:1051C00051E8002F42F0805241E80023002BF5D136
:1051D00020E012494167F1E78168B14201D10169DC
:1051E00069B10F49026941675AB1016851E8002F5E
:1051F00042F4907241E80023002BF6D10AE00949FD
:105200004167026852E8001F41F0200142E80013A4
:10521000002BF6D1002070BD9D4B000835490008D9
:10522000D54A00086D4800082DE9F0479946174611
:105230000D460446089E4FF0000833E0701C31D044
:10524000FBF7F0FFA0EB0900B04218D8BEB1206810
:105250000168490726D5802D24D0402D22D0C16970
:10526000C94309070DD4082505622046FFF7D4FA83
:10527000C4F89050012084F88480BDE8F0870320B2
:10528000FBE7C069C04300050CD421684FF40060FF
:1052900008622046FFF7C0FA2021C4F8901084F875
:1052A0008480ECE72068C06935EA000004D0002063
:1052B000B842C3D00020E0E70120F9E70148FDF73C
:1052C00049BF00006C0100240148FDF743BF000006
:1052D000000200240148FDF73DBF000094020024B5
:1052E000FEE7090700284FEA116104DB00F1E02026
:1052F00080F80014704700F00F0000F1E02080F803
:10530000141D704790B000250095019502950395F6
:10531000FCF712F801268DF80C601F208DF80800AC
:1053200087218DF809108DF80D6068468DF80060B2
:105330008DF80A508DF80E508DF8015001958DF8BA
:105340000B508DF80F50FBF7C9FF0420FCF702F853
:10535000FBF776FFFEF764FEFEF7C0FAFEF71AFBD6
:10536000FEF7F2FBFEF758FCFEF722FCFEF782FB8D
:10537000FEF7B6FBFEF72AFE6E4901226E48FEF7E5
:10538000D5F96C4901226D48891CFEF7CFF96949AE
:1053900004226B480931FEF7C9F9664C694FE41FD6
:1053A000F87933283CD0222842D011286BD08828A5
:1053B000F6D1FBF767FA0028F2D0DFF88C914FF0B6
:1053C000FF08322161A203A899F80230CDF80080CD
:1053D000CDF80480CDF80880FBF768F803A8FBF748
:1053E00019F94FF0FF3A82B2544803A95346FEF729
:1053F0001BFACDF800803221CDF8048059A2CDF8F7
:10540000088003A899F80030FBF750F803A8FBF7D1
:1054100001F982B2494803A95346FEF705FABFE7EE
:1054200040F2DC50A0810146E081FEF7C6FDB7E7FF
:10543000207A012806D0022809D003280CD004289D
:105440000FD015E03B48401DFEF7CCFD0DE039487C
:10545000401DFEF7D0FD08E03648C01DFEF7D4FD24
:1054600003E03448C01DFEF7B3FD6420FBF7B0FD38
:10547000A07A062804D0072892D1FEF775FC8FE7A2
:10548000FEF76AFC8CE76078012811D0002887D1EC
:105490002079401CC0B220710F2802D9FEF764FCAD
:1054A000257140F24471A08988420ED3A57017E09F
:1054B00020496079491DFEF7E5FB1E49A079C91D09
:1054C000FEF718FC1E2065702CE040F27441884203
:1054D00001D8A67009E0A07810B1012805D00BE032
:1054E0001448401DFEF787FD03E01248401DFEF7FB
:1054F00079FD3C20FBF76CFDE08940F2FA518842CF
:1055000001D3E57011E040F2F641884201D8E6701F
:1055100003E0E07848B1012889D10648C01DFEF7B4
:1055200073FD3220FBF754FD3AE70248C01DFEF739
:105530004FFDF6E7110000246C01002494020024C2
:105540000002002434000024040000247061676518
:10555000322E6E312E76616C3D25642563256325E0
:105560006300000070616765322E6E302E76616CCC
:105570003D25642563256325630000004FF04070DE
:10558000E1EE100A70470100020004000600080066
:105590000A000C0010002000400080000001010102
:1055A00001030701000008040204080101010000D2
:1055B00000000102030401020304060708090000B9
:1055C000E055000800000024340000000803000833
:1055D0001456000834000024540900002403000875
:1055E0000000000000000000000000000000003C7F
:1055F000540000000000DC05DC0500000000000095
:105600000100000010000000000000000090D00326
:045610000090D00333
:04000005080002CD20
:00000001FF
